:10356D0012011001000000088880FF000001000218
:10357D000001040309041803530069006D00500095
:10358D0061006400200042006F006F0074000501AF
:10359D000900A101150025FF1901290895087508D5
:1035AD0081020902150025FF750895409106C00995
:1035BD0002410001010080320904000002030000F5
:1035CD00000921100100012221000705820340009E
:0835DD000A0705020340000289
:09370B000126000227004AC1005A
:1036DE00EF4E601505A105A105A105A105A105A146
:0A36EE0005A1EF1F70EA1E80E7221D
:10363D00E4F5E275D18053D1FB53E2BF75ED007512
:10364D00EC0075E50075E40A75DC0253EAF343EB13
:10365D000C53EBFE75D41243E22943D101F5E3750A
:06366D00D8FF75E1072201
:1030040020D90302327AE5D9543F700302326F2487
:10301400FE602024E2700302321A24F0602C240E95
:103024006003023277E4F5D5E5D454FC4402F5D4C8
:1030340002327720DE03023277200008D20085DBDB
:103044006B02327743D40802327785DB0BE50B64DD
:103054000860030231F6900006E0F522A3E0700751
:10306400E522D3947F400375227FE4F50B900001A1
:10307400E0F521E521B40B0040030231F4903088DF
:10308400F82828730231DC0231780231F402319FCE
:103094000231F40231500230A90231F402315902F2
:1030A400316F0231F9900003E024FE6019146024AA
:1030B40024E16048242170527523FF752435752559
:1030C4006D750B1280477523FF7524357525BC7506
:1030D4000B298039900002E024FE60122402702A39
:1030E4007523FF75243575257F750B04801F7523A3
:1030F400FF752435752583750B1880117523FF75AD
:10310400243575259B750B218003750BFFE522D3B0
:10311400950B4003850B22E522C3940840047F08E5
:103124008002AF228F0B7E0078007C007D01AB23F0
:10313400AA24A9251234A2C3E522950BF522E50B96
:103144002525F525E43524F5240231F9900002E023
:10315400F5220231F9900000E526F0E522C394013E
:1031640050030231F9750B010231F9900002E0F5C8
:10317400260231F9900000E0541FFFBF021B9000AB
:1031840004E024FE600E24807068E5D454BC44023C
:10319400F5D4806153D473805C8057900003E0FEC3
:1031A400900002E0FDED4E702F900005E0FE9000CF
:1031B40004E0FDEDFFEE701DEF24FE600E24807030
:1031C40014E5D454BF4403F5D4800DE5D4547F44AE
:1031D4000CF5D48003750BFFE4900000F0A3F0E538
:1031E40022C394024005750B02800A85220B8005D8
:1031F4008000750BFFE50BB4FF087521FF75DCCF6C
:103204008071E50BD394085005850BDD8003E4F54C
:10321400DD75DCC0805DE52124FB603D147044E570
:1032240022C3940840047F088002AF228F0B7E00E3
:1032340078007C007D01AB23AA24A9251234A2C303
:10324400E522950BF522E50B2525F525E43524F536
:1032540024850BDD63DC40801AE5E354804522F5C8
:10326400E38003E4F5DD75DC02800885DB0BE4F51F
:10327400DDF5DCC2D92230D81075DC0275D412E435
:0E328400F5E3C2DAC2D9C2D82230DA02C2DAC9
:013292002219
:1036F800E4FFE5282FF582E43527F583E4F00FBFD2
:0237080040F08F
:01370A00229C
:1035E500E4F50BE5D514F50CE50BC3950C5029E571
:1035F50028250CF582E43527F583C083C082E0FFDA
:10360500E528250BF582E43527F583E0FEEF6ED03E
:1036150082D083F0050B80D0E528250CF582E435B2
:1036250027F583E0F404FFE528250CF582E435272A
:07363500F583EFF053D4FC14
:01363C00226B
:10367300D3EF94FEEE942F40037F4022EF54FE8E4F
:1036830085F5848C8F8D8EE58630E617747330E074
:103693000675869A0080040075869AE58664405410
:0636A3007FFF227F4022A0
:1036A9008E698F6AE4F511E511651060251234C839
:1036B900FF856A82856983E4936F60037FFF220532
:1036C9006AE56A70020569740129F9E43AFA051193
:0436D90080D57F0019
:0136DD0022CA
:10329300E4F5A1C2AF12363DE5D8541F70030233E3
:1032A300C81230042000030233C8C20090000CE0AF
:1032B300FEA3E0FDEEF508EDF5091236F890000ADD
:1032C300E0FF852882852783F075D508EF246060A9
:1032D3004A24E0700302338324D070030233BC24F6
:1032E300EF60030233C5852882852783A3A3741463
:1032F300F0852882852783A3A3A314F0E52824045B
:10330300F582E43527F5837407F0E5282405F58273
:10331300E43527F5837410F00233C590000BE0FF0A
:10332300C313FB75A15575A1AA43B10CE4FAEA6B6B
:103333006039EA25E0240FF582E43400F583E0FEEA
:10334300EA25E0240EF582E43400F583E0FDAC06C3
:10335300AF09AE081236738F0A74022509F509E422
:103363003508F508E50A70030A80C375A15575A1F0
:10337300AA53B1F3852882852783A3E50AF0804207
:103383007B017A00790E90000BE0F510AF09AE08CF
:103393001236A9852882852783A3EFF090000CE0DD
:1033A300852882852783A3A3F090000DE0852882DA
:1033B300852783A3A3A3F0800975A15575A1AA430B
:0F33C300B1101235E57FF47E011236DE02329B27
:030000000234E1E6
:0C34E100787FE4F6D8FD75816B02352879
:1033D200E709F608DFFA8046E709F208DFFA803EDD
:1033E20088828C83E709F0A3DFFA8032E309F608CA
:1033F200DFFA8078E309F208DFFA807088828C8332
:10340200E309F0A3DFFA806489828A83E0A3F608E5
:10341200DFFA805889828A83E0A3F208DFFA804CBF
:1034220080D280FA80C680D4806980F28033801096
:1034320080A680EA809A80A880DA80E280CA8033FF
:1034420089828A83ECFAE493A3C8C582C8CCC58377
:10345200CCF0A3C8C582C8CCC583CCDFE9DEE78047
:103462000D89828A83E493A3F608DFF9ECFAA9F0C6
:10347200EDFB2289828A83ECFAE0A3C8C582C8CC1C
:10348200C583CCF0A3C8C582C8CCC583CCDFEADE35
:10349200E880DB89828A83E493A3F208DFF980CC97
:1034A20088F0EF60010E4E60C388F0ED2402B40490
:1034B2000050B9F582EB2402B4040050AF23234537
:0634C20082239034227306
:1034C800BB010689828A83E0225002E722BBFE0202
:0934D800E32289828A83E4932235
:1034ED00023293E493A3F8E493A34003F68001F230
:1034FD0008DFF48029E493A3F85407240CC8C333E0
:10350D00C4540F4420C8834004F456800146F6DFAE
:10351D00E4800B010204081020408090370BE47EFC
:10352D00019360BCA3FF543F30E509541FFEE493A3
:10353D00A360010ECF54C025E060A840B8E493A36A
:10354D00FAE493A3F8E493A3C8C582C8CAC583CA95
:10355D00F0A3C8C582C8CAC583CADFE9DEE780BE4D
:0137140000B4
:00000001FF
